{
  "_format": "hh3-artifact-1",
  "contractName": "NFTRegistration",
  "sourceName": "contracts/NFTRegistration.sol",
  "abi": [
    {
      "inputs": [
        {
          "internalType": "address",
          "name": "_oroTokenAddress",
          "type": "address"
        },
        {
          "internalType": "uint256",
          "name": "_initialPrice",
          "type": "uint256"
        },
        {
          "internalType": "uint256",
          "name": "_priceIncreasePercentage",
          "type": "uint256"
        },
        {
          "internalType": "uint256",
          "name": "_startDate",
          "type": "uint256"
        },
        {
          "internalType": "uint256",
          "name": "_maxSpots",
          "type": "uint256"
        }
      ],
      "stateMutability": "nonpayable",
      "type": "constructor"
    },
    {
      "inputs": [],
      "name": "AlreadyRegistered",
      "type": "error"
    },
    {
      "inputs": [],
      "name": "EnforcedPause",
      "type": "error"
    },
    {
      "inputs": [],
      "name": "ExpectedPause",
      "type": "error"
    },
    {
      "inputs": [],
      "name": "NoFundsToWithdraw",
      "type": "error"
    },
    {
      "inputs": [],
      "name": "NoSpotsAvailable",
      "type": "error"
    },
    {
      "inputs": [
        {
          "internalType": "address",
          "name": "owner",
          "type": "address"
        }
      ],
      "name": "OwnableInvalidOwner",
      "type": "error"
    },
    {
      "inputs": [
        {
          "internalType": "address",
          "name": "account",
          "type": "address"
        }
      ],
      "name": "OwnableUnauthorizedAccount",
      "type": "error"
    },
    {
      "inputs": [],
      "name": "ReentrancyGuardReentrantCall",
      "type": "error"
    },
    {
      "inputs": [],
      "name": "RegistrationNotStarted",
      "type": "error"
    },
    {
      "inputs": [],
      "name": "TransferFailed",
      "type": "error"
    },
    {
      "anonymous": false,
      "inputs": [
        {
          "indexed": true,
          "internalType": "address",
          "name": "previousOwner",
          "type": "address"
        },
        {
          "indexed": true,
          "internalType": "address",
          "name": "newOwner",
          "type": "address"
        }
      ],
      "name": "OwnershipTransferred",
      "type": "event"
    },
    {
      "anonymous": false,
      "inputs": [
        {
          "indexed": false,
          "internalType": "address",
          "name": "account",
          "type": "address"
        }
      ],
      "name": "Paused",
      "type": "event"
    },
    {
      "anonymous": false,
      "inputs": [
        {
          "indexed": true,
          "internalType": "address",
          "name": "user",
          "type": "address"
        },
        {
          "indexed": false,
          "internalType": "uint256",
          "name": "spotNumber",
          "type": "uint256"
        },
        {
          "indexed": false,
          "internalType": "uint256",
          "name": "pricePaid",
          "type": "uint256"
        }
      ],
      "name": "Registered",
      "type": "event"
    },
    {
      "anonymous": false,
      "inputs": [
        {
          "indexed": false,
          "internalType": "address",
          "name": "account",
          "type": "address"
        }
      ],
      "name": "Unpaused",
      "type": "event"
    },
    {
      "anonymous": false,
      "inputs": [
        {
          "indexed": true,
          "internalType": "address",
          "name": "owner",
          "type": "address"
        },
        {
          "indexed": false,
          "internalType": "uint256",
          "name": "amount",
          "type": "uint256"
        }
      ],
      "name": "Withdrawn",
      "type": "event"
    },
    {
      "inputs": [],
      "name": "count",
      "outputs": [
        {
          "internalType": "uint256",
          "name": "",
          "type": "uint256"
        }
      ],
      "stateMutability": "view",
      "type": "function"
    },
    {
      "inputs": [],
      "name": "currentPrice",
      "outputs": [
        {
          "internalType": "uint256",
          "name": "",
          "type": "uint256"
        }
      ],
      "stateMutability": "view",
      "type": "function"
    },
    {
      "inputs": [],
      "name": "getContractBalance",
      "outputs": [
        {
          "internalType": "uint256",
          "name": "",
          "type": "uint256"
        }
      ],
      "stateMutability": "view",
      "type": "function"
    },
    {
      "inputs": [],
      "name": "getRegistrants",
      "outputs": [
        {
          "internalType": "address[]",
          "name": "",
          "type": "address[]"
        }
      ],
      "stateMutability": "view",
      "type": "function"
    },
    {
      "inputs": [
        {
          "internalType": "address",
          "name": "user",
          "type": "address"
        }
      ],
      "name": "hasRegistered",
      "outputs": [
        {
          "internalType": "bool",
          "name": "",
          "type": "bool"
        }
      ],
      "stateMutability": "view",
      "type": "function"
    },
    {
      "inputs": [],
      "name": "hasRemainingSpots",
      "outputs": [
        {
          "internalType": "bool",
          "name": "",
          "type": "bool"
        }
      ],
      "stateMutability": "view",
      "type": "function"
    },
    {
      "inputs": [],
      "name": "initialPrice",
      "outputs": [
        {
          "internalType": "uint256",
          "name": "",
          "type": "uint256"
        }
      ],
      "stateMutability": "view",
      "type": "function"
    },
    {
      "inputs": [],
      "name": "maxSpots",
      "outputs": [
        {
          "internalType": "uint256",
          "name": "",
          "type": "uint256"
        }
      ],
      "stateMutability": "view",
      "type": "function"
    },
    {
      "inputs": [],
      "name": "oroToken",
      "outputs": [
        {
          "internalType": "contract IERC20",
          "name": "",
          "type": "address"
        }
      ],
      "stateMutability": "view",
      "type": "function"
    },
    {
      "inputs": [],
      "name": "owner",
      "outputs": [
        {
          "internalType": "address",
          "name": "",
          "type": "address"
        }
      ],
      "stateMutability": "view",
      "type": "function"
    },
    {
      "inputs": [],
      "name": "pause",
      "outputs": [],
      "stateMutability": "nonpayable",
      "type": "function"
    },
    {
      "inputs": [],
      "name": "paused",
      "outputs": [
        {
          "internalType": "bool",
          "name": "",
          "type": "bool"
        }
      ],
      "stateMutability": "view",
      "type": "function"
    },
    {
      "inputs": [],
      "name": "priceIncreasePercentage",
      "outputs": [
        {
          "internalType": "uint256",
          "name": "",
          "type": "uint256"
        }
      ],
      "stateMutability": "view",
      "type": "function"
    },
    {
      "inputs": [],
      "name": "register",
      "outputs": [],
      "stateMutability": "nonpayable",
      "type": "function"
    },
    {
      "inputs": [],
      "name": "remainingSpots",
      "outputs": [
        {
          "internalType": "uint256",
          "name": "",
          "type": "uint256"
        }
      ],
      "stateMutability": "view",
      "type": "function"
    },
    {
      "inputs": [],
      "name": "renounceOwnership",
      "outputs": [],
      "stateMutability": "nonpayable",
      "type": "function"
    },
    {
      "inputs": [],
      "name": "startDate",
      "outputs": [
        {
          "internalType": "uint256",
          "name": "",
          "type": "uint256"
        }
      ],
      "stateMutability": "view",
      "type": "function"
    },
    {
      "inputs": [
        {
          "internalType": "address",
          "name": "newOwner",
          "type": "address"
        }
      ],
      "name": "transferOwnership",
      "outputs": [],
      "stateMutability": "nonpayable",
      "type": "function"
    },
    {
      "inputs": [],
      "name": "unpause",
      "outputs": [],
      "stateMutability": "nonpayable",
      "type": "function"
    },
    {
      "inputs": [],
      "name": "withdraw",
      "outputs": [],
      "stateMutability": "nonpayable",
      "type": "function"
    },
    {
      "inputs": [
        {
          "internalType": "uint256",
          "name": "amount",
          "type": "uint256"
        }
      ],
      "name": "withdrawAmount",
      "outputs": [],
      "stateMutability": "nonpayable",
      "type": "function"
    }
  ],
  "bytecode": "0x61012060405234801562000011575f80fd5b50604051620020ec380380620020ec8339818101604052810190620000379190620003ca565b335f73ffffffffffffffffffffffffffffffffffffffff168173ffffffffffffffffffffffffffffffffffffffff1603620000ab575f6040517f1e4fbdf7000000000000000000000000000000000000000000000000000000008152600401620000a291906200045f565b60405180910390fd5b620000bc816200026c60201b60201c565b50600180819055505f73ffffffffffffffffffffffffffffffffffffffff168573ffffffffffffffffffffffffffffffffffffffff160362000135576040517f08c379a00000000000000000000000000000000000000000000000000000000081526004016200012c90620004d8565b60405180910390fd5b5f84116200017a576040517f08c379a000000000000000000000000000000000000000000000000000000000815260040162000171906200056c565b60405180910390fd5b5f8111620001bf576040517f08c379a0000000000000000000000000000000000000000000000000000000008152600401620001b690620005da565b60405180910390fd5b4282101562000205576040517f08c379a0000000000000000000000000000000000000000000000000000000008152600401620001fc9062000648565b60405180910390fd5b8473ffffffffffffffffffffffffffffffffffffffff1660808173ffffffffffffffffffffffffffffffffffffffff16815250508360a08181525050836002819055508260c081815250508160e08181525050806101008181525050505050505062000668565b5f805f9054906101000a900473ffffffffffffffffffffffffffffffffffffffff169050815f806101000a81548173ffffffffffffffffffffffffffffffffffffffff021916908373ffffffffffffffffffffffffffffffffffffffff1602179055508173ffffffffffffffffffffffffffffffffffffffff168173ffffffffffffffffffffffffffffffffffffffff167f8be0079c531659141344cd1fd0a4f28419497f9722a3daafe3b4186f6b6457e060405160405180910390a35050565b5f80fd5b5f73ffffffffffffffffffffffffffffffffffffffff82169050919050565b5f6200035c8262000331565b9050919050565b6200036e8162000350565b811462000379575f80fd5b50565b5f815190506200038c8162000363565b92915050565b5f819050919050565b620003a68162000392565b8114620003b1575f80fd5b50565b5f81519050620003c4816200039b565b92915050565b5f805f805f60a08688031215620003e657620003e56200032d565b5b5f620003f5888289016200037c565b95505060206200040888828901620003b4565b94505060406200041b88828901620003b4565b93505060606200042e88828901620003b4565b92505060806200044188828901620003b4565b9150509295509295909350565b620004598162000350565b82525050565b5f602082019050620004745f8301846200044e565b92915050565b5f82825260208201905092915050565b7f496e76616c696420746f6b656e206164647265737300000000000000000000005f82015250565b5f620004c06015836200047a565b9150620004cd826200048a565b602082019050919050565b5f6020820190508181035f830152620004f181620004b2565b9050919050565b7f496e697469616c207072696365206d75737420626520677265617465722074685f8201527f616e203000000000000000000000000000000000000000000000000000000000602082015250565b5f620005546024836200047a565b91506200056182620004f8565b604082019050919050565b5f6020820190508181035f830152620005858162000546565b9050919050565b7f4d61782073706f7473206d7573742062652067726561746572207468616e20305f82015250565b5f620005c26020836200047a565b9150620005cf826200058c565b602082019050919050565b5f6020820190508181035f830152620005f381620005b4565b9050919050565b7f53746172742064617465206d75737420626520696e20746865206675747572655f82015250565b5f620006306020836200047a565b91506200063d82620005fa565b602082019050919050565b5f6020820190508181035f830152620006618162000622565b9050919050565b60805160a05160c05160e051610100516119e4620007085f395f81816107c101528181610e4901528181610f7c01528181610fb6015261104001525f8181610733015261076701525f8181610a8a0152610b0501525f610ae101525f818161043901528181610513015281816105e8015281816108a701528181610b3a01528181610c0e01528181610ce301528181610e6e0152610f3001526119e45ff3fe608060405234801561000f575f80fd5b5060043610610135575f3560e01c806365d87941116100b65780638da5cb5b1161007a5780638da5cb5b146102955780639341aa34146102b35780639d1b464a146102d1578063a0d03526146102ef578063a9343fc21461031f578063f2fde38b1461033d57610135565b806365d87941146102275780636f9fb98a14610245578063715018a6146102635780638456cb591461026d57806384a2cc6b1461027757610135565b80631d0806ae116100fd5780631d0806ae146101b9578063351c9dbc146101d75780633ccfd60b146101f55780633f4ba83a146101ff5780635c975abb1461020957610135565b8063052b2aa7146101395780630562b9f71461015757806306661abd146101735780630b97bc86146101915780631aa3a008146101af575b5f80fd5b610141610359565b60405161014e91906114b8565b60405180910390f35b610171600480360381019061016c919061150f565b6103e4565b005b61017b610725565b6040516101889190611549565b60405180910390f35b610199610731565b6040516101a69190611549565b60405180910390f35b6101b7610755565b005b6101c1610adf565b6040516101ce9190611549565b60405180910390f35b6101df610b03565b6040516101ec9190611549565b60405180910390f35b6101fd610b27565b005b610207610e20565b005b610211610e32565b60405161021e919061157c565b60405180910390f35b61022f610e47565b60405161023c9190611549565b60405180910390f35b61024d610e6b565b60405161025a9190611549565b60405180910390f35b61026b610f09565b005b610275610f1c565b005b61027f610f2e565b60405161028c91906115f0565b60405180910390f35b61029d610f52565b6040516102aa9190611618565b60405180910390f35b6102bb610f79565b6040516102c89190611549565b60405180910390f35b6102d9610fe5565b6040516102e69190611549565b60405180910390f35b6103096004803603810190610304919061165b565b610feb565b604051610316919061157c565b60405180910390f35b61032761103d565b604051610334919061157c565b60405180910390f35b6103576004803603810190610352919061165b565b61106b565b005b606060038054806020026020016040519081016040528092919081815260200182805480156103da57602002820191905f5260205f20905b815f9054906101000a900473ffffffffffffffffffffffffffffffffffffffff1673ffffffffffffffffffffffffffffffffffffffff1681526020019060010190808311610391575b5050505050905090565b6103ec6110ef565b6103f4611176565b5f8111610436576040517f08c379a000000000000000000000000000000000000000000000000000000000815260040161042d906116e0565b60405180910390fd5b807f000000000000000000000000000000000000000000000000000000000000000073ffffffffffffffffffffffffffffffffffffffff166370a08231306040518263ffffffff1660e01b81526004016104909190611618565b602060405180830381865afa1580156104ab573d5f803e3d5ffd5b505050506040513d601f19601f820116820180604052508101906104cf9190611712565b1015610510576040517f08c379a000000000000000000000000000000000000000000000000000000000815260040161050790611787565b60405180910390fd5b5f7f000000000000000000000000000000000000000000000000000000000000000073ffffffffffffffffffffffffffffffffffffffff1663095ea7b330846040518363ffffffff1660e01b815260040161056c9291906117a5565b6020604051808303815f875af1158015610588573d5f803e3d5ffd5b505050506040513d601f19601f820116820180604052508101906105ac91906117f6565b9050806105e5576040517f90b8ec1800000000000000000000000000000000000000000000000000000000815260040160405180910390fd5b5f7f000000000000000000000000000000000000000000000000000000000000000073ffffffffffffffffffffffffffffffffffffffff166323b872dd3061062b610f52565b866040518463ffffffff1660e01b815260040161064a93929190611821565b6020604051808303815f875af1158015610666573d5f803e3d5ffd5b505050506040513d601f19601f8201168201806040525081019061068a91906117f6565b9050806106c3576040517f90b8ec1800000000000000000000000000000000000000000000000000000000815260040160405180910390fd5b6106cb610f52565b73ffffffffffffffffffffffffffffffffffffffff167f7084f5476618d8e60b11ef0d7d3f06914655adb8793e28ff7f018d4c76d505d5846040516107109190611549565b60405180910390a250506107226111bc565b50565b5f600380549050905090565b7f000000000000000000000000000000000000000000000000000000000000000081565b61075d6111c5565b610765611176565b7f00000000000000000000000000000000000000000000000000000000000000004210156107bf576040517f17ea543f00000000000000000000000000000000000000000000000000000000815260040160405180910390fd5b7f00000000000000000000000000000000000000000000000000000000000000006003805490501061081d576040517f1d3a5e0a00000000000000000000000000000000000000000000000000000000815260040160405180910390fd5b60045f3373ffffffffffffffffffffffffffffffffffffffff1673ffffffffffffffffffffffffffffffffffffffff1681526020019081526020015f205f9054906101000a900460ff161561089e576040517f3a81d6fc00000000000000000000000000000000000000000000000000000000815260040160405180910390fd5b5f60025490505f7f000000000000000000000000000000000000000000000000000000000000000073ffffffffffffffffffffffffffffffffffffffff166323b872dd3330856040518463ffffffff1660e01b815260040161090293929190611821565b6020604051808303815f875af115801561091e573d5f803e3d5ffd5b505050506040513d601f19601f8201168201806040525081019061094291906117f6565b90508061097b576040517f90b8ec1800000000000000000000000000000000000000000000000000000000815260040160405180910390fd5b600333908060018154018082558091505060019003905f5260205f20015f9091909190916101000a81548173ffffffffffffffffffffffffffffffffffffffff021916908373ffffffffffffffffffffffffffffffffffffffff160217905550600160045f3373ffffffffffffffffffffffffffffffffffffffff1673ffffffffffffffffffffffffffffffffffffffff1681526020019081526020015f205f6101000a81548160ff0219169083151502179055503373ffffffffffffffffffffffffffffffffffffffff167fcda33a906ffa8a5f960826827500581f4613a5db7a84b250433e0d591a63093860038054905084604051610a7d929190611856565b60405180910390a26127107f0000000000000000000000000000000000000000000000000000000000000000612710610ab691906118aa565b600254610ac391906118dd565b610acd919061194b565b6002819055505050610add6111bc565b565b7f000000000000000000000000000000000000000000000000000000000000000081565b7f000000000000000000000000000000000000000000000000000000000000000081565b610b2f6110ef565b610b37611176565b5f7f000000000000000000000000000000000000000000000000000000000000000073ffffffffffffffffffffffffffffffffffffffff166370a08231306040518263ffffffff1660e01b8152600401610b919190611618565b602060405180830381865afa158015610bac573d5f803e3d5ffd5b505050506040513d601f19601f82011682018060405250810190610bd09190611712565b90505f8103610c0b576040517f67e3990d00000000000000000000000000000000000000000000000000000000815260040160405180910390fd5b5f7f000000000000000000000000000000000000000000000000000000000000000073ffffffffffffffffffffffffffffffffffffffff1663095ea7b330846040518363ffffffff1660e01b8152600401610c679291906117a5565b6020604051808303815f875af1158015610c83573d5f803e3d5ffd5b505050506040513d601f19601f82011682018060405250810190610ca791906117f6565b905080610ce0576040517f90b8ec1800000000000000000000000000000000000000000000000000000000815260040160405180910390fd5b5f7f000000000000000000000000000000000000000000000000000000000000000073ffffffffffffffffffffffffffffffffffffffff166323b872dd30610d26610f52565b866040518463ffffffff1660e01b8152600401610d4593929190611821565b6020604051808303815f875af1158015610d61573d5f803e3d5ffd5b505050506040513d601f19601f82011682018060405250810190610d8591906117f6565b905080610dbe576040517f90b8ec1800000000000000000000000000000000000000000000000000000000815260040160405180910390fd5b610dc6610f52565b73ffffffffffffffffffffffffffffffffffffffff167f7084f5476618d8e60b11ef0d7d3f06914655adb8793e28ff7f018d4c76d505d584604051610e0b9190611549565b60405180910390a2505050610e1e6111bc565b565b610e286110ef565b610e30611206565b565b5f8060149054906101000a900460ff16905090565b7f000000000000000000000000000000000000000000000000000000000000000081565b5f7f000000000000000000000000000000000000000000000000000000000000000073ffffffffffffffffffffffffffffffffffffffff166370a08231306040518263ffffffff1660e01b8152600401610ec59190611618565b602060405180830381865afa158015610ee0573d5f803e3d5ffd5b505050506040513d601f19601f82011682018060405250810190610f049190611712565b905090565b610f116110ef565b610f1a5f611267565b565b610f246110ef565b610f2c611328565b565b7f000000000000000000000000000000000000000000000000000000000000000081565b5f805f9054906101000a900473ffffffffffffffffffffffffffffffffffffffff16905090565b5f7f000000000000000000000000000000000000000000000000000000000000000060038054905010610fae575f9050610fe2565b6003805490507f0000000000000000000000000000000000000000000000000000000000000000610fdf919061197b565b90505b90565b60025481565b5f60045f8373ffffffffffffffffffffffffffffffffffffffff1673ffffffffffffffffffffffffffffffffffffffff1681526020019081526020015f205f9054906101000a900460ff169050919050565b5f7f000000000000000000000000000000000000000000000000000000000000000060038054905010905090565b6110736110ef565b5f73ffffffffffffffffffffffffffffffffffffffff168173ffffffffffffffffffffffffffffffffffffffff16036110e3575f6040517f1e4fbdf70000000000000000000000000000000000000000000000000000000081526004016110da9190611618565b60405180910390fd5b6110ec81611267565b50565b6110f761138a565b73ffffffffffffffffffffffffffffffffffffffff16611115610f52565b73ffffffffffffffffffffffffffffffffffffffff16146111745761113861138a565b6040517f118cdaa700000000000000000000000000000000000000000000000000000000815260040161116b9190611618565b60405180910390fd5b565b6002600154036111b2576040517f3ee5aeb500000000000000000000000000000000000000000000000000000000815260040160405180910390fd5b6002600181905550565b60018081905550565b6111cd610e32565b15611204576040517fd93c066500000000000000000000000000000000000000000000000000000000815260040160405180910390fd5b565b61120e611391565b5f8060146101000a81548160ff0219169083151502179055507f5db9ee0a495bf2e6ff9c91a7834c1ba4fdd244a5e8aa4e537bd38aeae4b073aa61125061138a565b60405161125d9190611618565b60405180910390a1565b5f805f9054906101000a900473ffffffffffffffffffffffffffffffffffffffff169050815f806101000a81548173ffffffffffffffffffffffffffffffffffffffff021916908373ffffffffffffffffffffffffffffffffffffffff1602179055508173ffffffffffffffffffffffffffffffffffffffff168173ffffffffffffffffffffffffffffffffffffffff167f8be0079c531659141344cd1fd0a4f28419497f9722a3daafe3b4186f6b6457e060405160405180910390a35050565b6113306111c5565b60015f60146101000a81548160ff0219169083151502179055507f62e78cea01bee320cd4e420270b5ea74000d11b0c9f74754ebdbfc544b05a25861137361138a565b6040516113809190611618565b60405180910390a1565b5f33905090565b611399610e32565b6113cf576040517f8dfc202b00000000000000000000000000000000000000000000000000000000815260040160405180910390fd5b565b5f81519050919050565b5f82825260208201905092915050565b5f819050602082019050919050565b5f73ffffffffffffffffffffffffffffffffffffffff82169050919050565b5f611423826113fa565b9050919050565b61143381611419565b82525050565b5f611444838361142a565b60208301905092915050565b5f602082019050919050565b5f611466826113d1565b61147081856113db565b935061147b836113eb565b805f5b838110156114ab5781516114928882611439565b975061149d83611450565b92505060018101905061147e565b5085935050505092915050565b5f6020820190508181035f8301526114d0818461145c565b905092915050565b5f80fd5b5f819050919050565b6114ee816114dc565b81146114f8575f80fd5b50565b5f81359050611509816114e5565b92915050565b5f60208284031215611524576115236114d8565b5b5f611531848285016114fb565b91505092915050565b611543816114dc565b82525050565b5f60208201905061155c5f83018461153a565b92915050565b5f8115159050919050565b61157681611562565b82525050565b5f60208201905061158f5f83018461156d565b92915050565b5f819050919050565b5f6115b86115b36115ae846113fa565b611595565b6113fa565b9050919050565b5f6115c98261159e565b9050919050565b5f6115da826115bf565b9050919050565b6115ea816115d0565b82525050565b5f6020820190506116035f8301846115e1565b92915050565b61161281611419565b82525050565b5f60208201905061162b5f830184611609565b92915050565b61163a81611419565b8114611644575f80fd5b50565b5f8135905061165581611631565b92915050565b5f602082840312156116705761166f6114d8565b5b5f61167d84828501611647565b91505092915050565b5f82825260208201905092915050565b7f416d6f756e74206d7573742062652067726561746572207468616e20300000005f82015250565b5f6116ca601d83611686565b91506116d582611696565b602082019050919050565b5f6020820190508181035f8301526116f7816116be565b9050919050565b5f8151905061170c816114e5565b92915050565b5f60208284031215611727576117266114d8565b5b5f611734848285016116fe565b91505092915050565b7f496e73756666696369656e742062616c616e63650000000000000000000000005f82015250565b5f611771601483611686565b915061177c8261173d565b602082019050919050565b5f6020820190508181035f83015261179e81611765565b9050919050565b5f6040820190506117b85f830185611609565b6117c5602083018461153a565b9392505050565b6117d581611562565b81146117df575f80fd5b50565b5f815190506117f0816117cc565b92915050565b5f6020828403121561180b5761180a6114d8565b5b5f611818848285016117e2565b91505092915050565b5f6060820190506118345f830186611609565b6118416020830185611609565b61184e604083018461153a565b949350505050565b5f6040820190506118695f83018561153a565b611876602083018461153a565b9392505050565b7f4e487b71000000000000000000000000000000000000000000000000000000005f52601160045260245ffd5b5f6118b4826114dc565b91506118bf836114dc565b92508282019050808211156118d7576118d661187d565b5b92915050565b5f6118e7826114dc565b91506118f2836114dc565b9250828202611900816114dc565b915082820484148315176119175761191661187d565b5b5092915050565b7f4e487b71000000000000000000000000000000000000000000000000000000005f52601260045260245ffd5b5f611955826114dc565b9150611960836114dc565b9250826119705761196f61191e565b5b828204905092915050565b5f611985826114dc565b9150611990836114dc565b92508282039050818111156119a8576119a761187d565b5b9291505056fea26469706673582212201f068fd5d99500563b223f28ab50376095a253813a3cf8ae90b59b60a6e8bcca64736f6c63430008180033",
  "linkReferences": {},
  "deployedLinkReferences": {},
  "immutableReferences": {
    "449": [
      {
        "length": 32,
        "start": 1081
      },
      {
        "length": 32,
        "start": 1299
      },
      {
        "length": 32,
        "start": 1512
      },
      {
        "length": 32,
        "start": 2215
      },
      {
        "length": 32,
        "start": 2874
      },
      {
        "length": 32,
        "start": 3086
      },
      {
        "length": 32,
        "start": 3299
      },
      {
        "length": 32,
        "start": 3694
      },
      {
        "length": 32,
        "start": 3888
      }
    ],
    "452": [
      {
        "length": 32,
        "start": 2785
      }
    ],
    "455": [
      {
        "length": 32,
        "start": 2698
      },
      {
        "length": 32,
        "start": 2821
      }
    ],
    "458": [
      {
        "length": 32,
        "start": 1843
      },
      {
        "length": 32,
        "start": 1895
      }
    ],
    "461": [
      {
        "length": 32,
        "start": 1985
      },
      {
        "length": 32,
        "start": 3657
      },
      {
        "length": 32,
        "start": 3964
      },
      {
        "length": 32,
        "start": 4022
      },
      {
        "length": 32,
        "start": 4160
      }
    ]
  },
  "inputSourceName": "project/contracts/NFTRegistration.sol",
  "buildInfoId": "solc-0_8_24-e9f419c40a47f063d0d310eb1ce1498c66134aee"
}